:020000040000FA
:060000001AEF01F01200EE
:020006000000F8
:08000800D9CFE6FFE1CFD9FFDB
:10001000060EE126DF6A040EDB6A050EDB6A946ACF
:10002000010EF36E020EF3CFDBFF200EF36E030E14
:10003000F3CFDBFFDBCFE6FF020EDB50E552E7102C
:10004000826EDE52010EDD6E010EDB50020A46E0CA
:10005000030A01E085D01E0EDF5C05E1100EF36E91
:10006000030EF3CFDBFF230EDF5C05E1080EF36E1A
:10007000030EF3CFDBFF250EDF5C05E1040EF36E0C
:10008000020EF3CFDBFF030EDBCFE6FF020EDB50E9
:10009000E552E710826EDF2ADF50250804E2DF6AAE
:1000A000DE52020EDD6E040EDB6A050EDB6A040E04
:1000B000DBCF02F0050EDBCF03F0100E025C270E43
:1000C00003580BE2300EE66E28EC01F0E552040E08
:1000D000DB2A050E01E3DB2AEAD742D01E0EDF5CE5
:1000E00004E1020EF36EF3CFDBFF230EDF5C05E1CC
:1000F000010EF36E020EF3CFDBFF250EDF5C05E190
:10010000200EF36E030EF3CFDBFF030EDBCFE6FF13
:10011000020EDB50E552E710826EDF2ADF50250821
:1001200004E2DF6ADE52010EDD6E040EDB6A050EAC
:10013000DB6A040EDBCF02F0050EDBCF03F0100EFE
:10014000025C270E03580BE2300EE66E28EC01F03D
:10015000E552040EDB2A050E01E3DB2AEAD700D0C4
:1001600073D7060EE15C02E2E16AE552E16EE55208
:06017000E7CFD9FF1200E9
:0A017600060EF66E000EF76E000E86
:10018000F86E00010900F550656F0900F550666FC3
:1001900003E1656701D03DD00900F550606F0900AB
:1001A000F550616F0900F550626F09000900F550C4
:1001B000E96E0900F550EA6E090009000900F550E2
:1001C000636F0900F550646F09000900F6CF67F00E
:1001D000F7CF68F0F8CF69F060C0F6FF61C0F7FFB5
:1001E00062C0F8FF0001635302E1645307E00900B5
:1001F000F550EE6E6307F8E26407F9D767C0F6FFC3
:1002000068C0F7FF69C0F8FF00016507000E665B74
:04021000BFD7120042
:0C021400000EF36E00EE00F0060E01D8A4
:100220001200EA6002D0EE6AFCD7F350E9601200D7
:04023000EE6AFCD79F
:0C02340015EE00F025EE00F0F86A019CC9
:10024000BBEC00F033EC01F004EC00F0FBD7120043
:10025000FF0EE350E84E1200000000D000D000D0A6
:06026000E82EFAD712009F
:02026600120084
:00000001FF
