:020000040000FA
:06000000C4EF00F0120045
:020006000000F8
:08000800D9CFE6FFE1CFD9FFDB
:10001000040EE126DF6A010EDB6A020EDB6A030EC4
:10002000DB6A946A826ADE52010EDD6E010EDB50DD
:10003000030A1BE0010A0EE0030A01E021D0DF2AD7
:10004000DF501E0806E2DF6A010E826EDE52020EEB
:10005000DD6E16D0DF2ADF501E0806E2DF6A040ECE
:10006000826EDE52030EDD6E0BD0DF2ADF500508F4
:1000700006E2DF6A020E826EDE52010EDD6E00D0F5
:10008000020EDB6A030EDB6A020EDBCF02F0030E08
:10009000DBCF03F0100E025C270E03580BE2300E8C
:1000A000E66ED2EC00F0E552020EDB2A030E01E30D
:1000B000DB2AEAD7BBD7040EE15C02E2E16AE55233
:0A00C000E16EE552E7CFD9FF120010
:0600CA00060EF66E000EAA
:1000D000F76E000EF86E00010900F550656F09001B
:1000E000F550666F03E1656701D03DD00900F5501A
:1000F000606F0900F550616F0900F550626F0900EB
:100100000900F550E96E0900F550EA6E0900090092
:100110000900F550636F0900F550646F090009008C
:10012000F6CF67F0F7CF68F0F8CF69F060C0F6FF60
:1001300061C0F7FF62C0F8FF0001635302E164533E
:1001400007E00900F550EE6E6307F8E26407F9D79F
:1001500067C0F6FF68C0F7FF69C0F8FF00016507D8
:08016000000E665BBFD7120020
:08016800000EF36E00EE00F042
:10017000060E01D81200EA6002D0EE6AFCD7F350F6
:08018000E9601200EE6AFCD7F1
:0801880015EE00F025EE00F079
:10019000F86A019C65EC00F0DDEC00F004EC00F086
:0401A000FBD7120077
:0C01A400FF0EE350E84E1200000000D0F7
:0A01B00000D000D0E82EFAD71200AC
:0201BA00120031
:00000001FF
